{
  "contractName": "ElectionV2",
  "abi": [
    {
      "inputs": [],
      "stateMutability": "nonpayable",
      "type": "constructor"
    },
    {
      "inputs": [],
      "name": "contractVoteCounts",
      "outputs": [
        {
          "internalType": "uint256",
          "name": "",
          "type": "uint256"
        }
      ],
      "stateMutability": "view",
      "type": "function",
      "constant": true
    },
    {
      "inputs": [
        {
          "internalType": "uint256",
          "name": "",
          "type": "uint256"
        }
      ],
      "name": "contractVotes",
      "outputs": [
        {
          "internalType": "uint256",
          "name": "id",
          "type": "uint256"
        },
        {
          "internalType": "string",
          "name": "name",
          "type": "string"
        },
        {
          "internalType": "string",
          "name": "organizerName",
          "type": "string"
        },
        {
          "internalType": "address",
          "name": "organizerAddress",
          "type": "address"
        },
        {
          "internalType": "string",
          "name": "publicKey",
          "type": "string"
        },
        {
          "internalType": "string",
          "name": "privateKey",
          "type": "string"
        },
        {
          "internalType": "uint256",
          "name": "voteOptionCount",
          "type": "uint256"
        },
        {
          "internalType": "uint256",
          "name": "totalVoteCount",
          "type": "uint256"
        },
        {
          "internalType": "bool",
          "name": "voteEnd",
          "type": "bool"
        }
      ],
      "stateMutability": "view",
      "type": "function",
      "constant": true
    },
    {
      "inputs": [
        {
          "internalType": "address",
          "name": "",
          "type": "address"
        },
        {
          "internalType": "uint256",
          "name": "",
          "type": "uint256"
        }
      ],
      "name": "myOrganizedVotes",
      "outputs": [
        {
          "internalType": "uint256",
          "name": "",
          "type": "uint256"
        }
      ],
      "stateMutability": "view",
      "type": "function",
      "constant": true
    },
    {
      "inputs": [
        {
          "internalType": "string",
          "name": "_name",
          "type": "string"
        },
        {
          "internalType": "string",
          "name": "_organizerName",
          "type": "string"
        },
        {
          "internalType": "string",
          "name": "_publicKey",
          "type": "string"
        },
        {
          "internalType": "string[]",
          "name": "_options",
          "type": "string[]"
        }
      ],
      "name": "addVote",
      "outputs": [],
      "stateMutability": "nonpayable",
      "type": "function"
    },
    {
      "inputs": [],
      "name": "getMyOrganizedVotes",
      "outputs": [
        {
          "internalType": "uint256[]",
          "name": "",
          "type": "uint256[]"
        }
      ],
      "stateMutability": "view",
      "type": "function",
      "constant": true
    },
    {
      "inputs": [
        {
          "internalType": "uint256",
          "name": "voteID",
          "type": "uint256"
        }
      ],
      "name": "getVoteOptionsByVoteID",
      "outputs": [
        {
          "components": [
            {
              "internalType": "uint256",
              "name": "id",
              "type": "uint256"
            },
            {
              "internalType": "string",
              "name": "name",
              "type": "string"
            }
          ],
          "internalType": "struct ElectionV2.VoteOption[]",
          "name": "",
          "type": "tuple[]"
        }
      ],
      "stateMutability": "view",
      "type": "function",
      "constant": true
    },
    {
      "inputs": [
        {
          "internalType": "uint256",
          "name": "voteID",
          "type": "uint256"
        }
      ],
      "name": "getVoteTicketsByVoteID",
      "outputs": [
        {
          "components": [
            {
              "internalType": "uint256",
              "name": "id",
              "type": "uint256"
            },
            {
              "internalType": "string",
              "name": "encryptedBallot",
              "type": "string"
            },
            {
              "internalType": "string",
              "name": "signature",
              "type": "string"
            }
          ],
          "internalType": "struct ElectionV2.VoteTicket[]",
          "name": "",
          "type": "tuple[]"
        }
      ],
      "stateMutability": "view",
      "type": "function",
      "constant": true
    },
    {
      "inputs": [
        {
          "internalType": "uint256",
          "name": "voteID",
          "type": "uint256"
        }
      ],
      "name": "getVoteResultsByVoteID",
      "outputs": [
        {
          "internalType": "uint256[]",
          "name": "",
          "type": "uint256[]"
        }
      ],
      "stateMutability": "view",
      "type": "function",
      "constant": true
    },
    {
      "inputs": [
        {
          "internalType": "uint256",
          "name": "voteID",
          "type": "uint256"
        },
        {
          "internalType": "string",
          "name": "_encryptedBallot",
          "type": "string"
        },
        {
          "internalType": "string",
          "name": "_signature",
          "type": "string"
        }
      ],
      "name": "caseVoteByVoteID",
      "outputs": [],
      "stateMutability": "nonpayable",
      "type": "function"
    },
    {
      "inputs": [
        {
          "internalType": "uint256",
          "name": "voteID",
          "type": "uint256"
        },
        {
          "internalType": "string",
          "name": "_privateKey",
          "type": "string"
        },
        {
          "internalType": "uint256[]",
          "name": "voteOptionSuccessTicketCounts",
          "type": "uint256[]"
        }
      ],
      "name": "endVoteByVoteID",
      "outputs": [],
      "stateMutability": "nonpayable",
      "type": "function"
    }
  ],
  "bytecode": "0x608060405234801561001057600080fd5b50612120806100206000396000f3fe608060405234801561001057600080fd5b506004361061009e5760003560e01c8063a6c611ba11610066578063a6c611ba14610173578063a83874ad1461018f578063a9d850d4146101ad578063f0a22e91146101dd578063fd6a2973146101fb5761009e565b80631b938942146100a35780631ce4f3f6146100db5780632d307bf3146100f7578063908c8457146101135780639d01c3b614610143575b600080fd5b6100bd60048036038101906100b8919061152f565b61022b565b6040516100d299989796959493929190611af0565b60405180910390f35b6100f560048036038101906100f091906115d7565b6104c6565b005b610111600480360381019061010c9190611558565b610603565b005b61012d6004803603810190610128919061152f565b610809565b60405161013a91906119cf565b60405180910390f35b61015d6004803603810190610158919061152f565b610a31565b60405161016a91906119f1565b60405180910390f35b61018d6004803603810190610188919061146c565b610ceb565b005b610197610f5f565b6040516101a49190611ad5565b60405180910390f35b6101c760048036038101906101c2919061152f565b610f65565b6040516101d49190611a13565b60405180910390f35b6101e56110dd565b6040516101f29190611a13565b60405180910390f35b61021560048036038101906102109190611430565b611172565b6040516102229190611ad5565b60405180910390f35b600160205280600052604060002060009150905080600001549080600101805461025490611e33565b80601f016020809104026020016040519081016040528092919081815260200182805461028090611e33565b80156102cd5780601f106102a2576101008083540402835291602001916102cd565b820191906000526020600020905b8154815290600101906020018083116102b057829003601f168201915b5050505050908060020180546102e290611e33565b80601f016020809104026020016040519081016040528092919081815260200182805461030e90611e33565b801561035b5780601f106103305761010080835404028352916020019161035b565b820191906000526020600020905b81548152906001019060200180831161033e57829003601f168201915b5050505050908060030160009054906101000a900473ffffffffffffffffffffffffffffffffffffffff169080600401805461039690611e33565b80601f01602080910402602001604051908101604052809291908181526020018280546103c290611e33565b801561040f5780601f106103e45761010080835404028352916020019161040f565b820191906000526020600020905b8154815290600101906020018083116103f257829003601f168201915b50505050509080600501805461042490611e33565b80601f016020809104026020016040519081016040528092919081815260200182805461045090611e33565b801561049d5780601f106104725761010080835404028352916020019161049d565b820191906000526020600020905b81548152906001019060200180831161048057829003601f168201915b50505050509080600601549080600901549080600b0160009054906101000a900460ff16905089565b6000831180156104d857506000548311155b610517576040517f08c379a000000000000000000000000000000000000000000000000000000000815260040161050e90611a95565b60405180910390fd5b60006001600085815260200190815260200160002090506000151581600b0160009054906101000a900460ff16151514610586576040517f08c379a000000000000000000000000000000000000000000000000000000000815260040161057d90611a35565b60405180910390fd5b80600901600081548092919061059b90611e96565b9190505550600081600a01600083600901548152602001908152602001600020905081600901548160000181905550838160010190805190602001906105e29291906111a3565b50828160020190805190602001906105fb9291906111a3565b505050505050565b60008311801561061557506000548311155b610654576040517f08c379a000000000000000000000000000000000000000000000000000000000815260040161064b90611a95565b60405180910390fd5b60006001600085815260200190815260200160002090503373ffffffffffffffffffffffffffffffffffffffff168160030160009054906101000a900473ffffffffffffffffffffffffffffffffffffffff1673ffffffffffffffffffffffffffffffffffffffff16146106fd576040517f08c379a00000000000000000000000000000000000000000000000000000000081526004016106f490611ab5565b60405180910390fd5b8060060154825114610744576040517f08c379a000000000000000000000000000000000000000000000000000000000815260040161073b90611a75565b60405180910390fd5b8281600501908051906020019061075c9291906111a3565b5060005b81600601548110156107e5578281815181106107a5577f4e487b7100000000000000000000000000000000000000000000000000000000600052603260045260246000fd5b60200260200101518260080160006001846107c09190611d1f565b81526020019081526020016000208190555080806107dd90611e96565b915050610760565b50600181600b0160006101000a81548160ff02191690831515021790555050505050565b606060008211801561081d57506000548211155b61085c576040517f08c379a000000000000000000000000000000000000000000000000000000000815260040161085390611a95565b60405180910390fd5b60006001600084815260200190815260200160002090506000816006015467ffffffffffffffff8111156108b9577f4e487b7100000000000000000000000000000000000000000000000000000000600052604160045260246000fd5b6040519080825280602002602001820160405280156108f257816020015b6108df611229565b8152602001906001900390816108d75790505b5090506000600190505b82600601548111610a26578260070160008281526020019081526020016000206040518060400160405290816000820154815260200160018201805461094190611e33565b80601f016020809104026020016040519081016040528092919081815260200182805461096d90611e33565b80156109ba5780601f1061098f576101008083540402835291602001916109ba565b820191906000526020600020905b81548152906001019060200180831161099d57829003601f168201915b505050505081525050826001836109d19190611d75565b81518110610a08577f4e487b7100000000000000000000000000000000000000000000000000000000600052603260045260246000fd5b60200260200101819052508080610a1e90611e96565b9150506108fc565b508092505050919050565b6060600082118015610a4557506000548211155b610a84576040517f08c379a0000000000000000000000000000000000000000000000000000000008152600401610a7b90611a95565b60405180910390fd5b60006001600084815260200190815260200160002090506000816009015467ffffffffffffffff811115610ae1577f4e487b7100000000000000000000000000000000000000000000000000000000600052604160045260246000fd5b604051908082528060200260200182016040528015610b1a57816020015b610b07611243565b815260200190600190039081610aff5790505b5090506000600190505b82600901548111610ce05782600a01600082815260200190815260200160002060405180606001604052908160008201548152602001600182018054610b6990611e33565b80601f0160208091040260200160405190810160405280929190818152602001828054610b9590611e33565b8015610be25780601f10610bb757610100808354040283529160200191610be2565b820191906000526020600020905b815481529060010190602001808311610bc557829003601f168201915b50505050508152602001600282018054610bfb90611e33565b80601f0160208091040260200160405190810160405280929190818152602001828054610c2790611e33565b8015610c745780601f10610c4957610100808354040283529160200191610c74565b820191906000526020600020905b815481529060010190602001808311610c5757829003601f168201915b50505050508152505082600183610c8b9190611d75565b81518110610cc2577f4e487b7100000000000000000000000000000000000000000000000000000000600052603260045260246000fd5b60200260200101819052508080610cd890611e96565b915050610b24565b508092505050919050565b60008151118015610cfe57506014815111155b610d3d576040517f08c379a0000000000000000000000000000000000000000000000000000000008152600401610d3490611a55565b60405180910390fd5b600080815480929190610d4f90611e96565b9190505550600060016000805481526020019081526020016000209050600054816000018190555084816001019080519060200190610d8f9291906111a3565b50338160030160006101000a81548173ffffffffffffffffffffffffffffffffffffffff021916908373ffffffffffffffffffffffffffffffffffffffff16021790555083816002019080519060200190610deb9291906111a3565b5082816004019080519060200190610e049291906111a3565b506000816009018190555060008160060181905550600081600b0160006101000a81548160ff021916908315150217905550600260003373ffffffffffffffffffffffffffffffffffffffff1673ffffffffffffffffffffffffffffffffffffffff16815260200190815260200160002081600001549080600181540180825580915050600190039060005260206000200160009091909190915055815181600601819055506000600190505b81600601548111610f57576000826007016000838152602001908152602001600020905081816000018190555083600183610eec9190611d75565b81518110610f23577f4e487b7100000000000000000000000000000000000000000000000000000000600052603260045260246000fd5b6020026020010151816001019080519060200190610f429291906111a3565b50508080610f4f90611e96565b915050610eb1565b505050505050565b60005481565b6060600082118015610f7957506000548211155b610fb8576040517f08c379a0000000000000000000000000000000000000000000000000000000008152600401610faf90611a95565b60405180910390fd5b60006001600084815260200190815260200160002090506000816006015467ffffffffffffffff811115611015577f4e487b7100000000000000000000000000000000000000000000000000000000600052604160045260246000fd5b6040519080825280602002602001820160405280156110435781602001602082028036833780820191505090505b5090506000600190505b826006015481116110d257826008016000828152602001908152602001600020548260018361107c9190611d75565b815181106110b3577f4e487b7100000000000000000000000000000000000000000000000000000000600052603260045260246000fd5b60200260200101818152505080806110ca90611e96565b91505061104d565b508092505050919050565b6060600260003373ffffffffffffffffffffffffffffffffffffffff1673ffffffffffffffffffffffffffffffffffffffff16815260200190815260200160002080548060200260200160405190810160405280929190818152602001828054801561116857602002820191906000526020600020905b815481526020019060010190808311611154575b5050505050905090565b6002602052816000526040600020818154811061118e57600080fd5b90600052602060002001600091509150505481565b8280546111af90611e33565b90600052602060002090601f0160209004810192826111d15760008555611218565b82601f106111ea57805160ff1916838001178555611218565b82800160010185558215611218579182015b828111156112175782518255916020019190600101906111fc565b5b5090506112259190611264565b5090565b604051806040016040528060008152602001606081525090565b60405180606001604052806000815260200160608152602001606081525090565b5b8082111561127d576000816000905550600101611265565b5090565b600061129461128f84611bbe565b611b99565b9050808382526020820190508260005b858110156112d457813585016112ba88826113f1565b8452602084019350602083019250506001810190506112a4565b5050509392505050565b60006112f16112ec84611bea565b611b99565b9050808382526020820190508285602086028201111561131057600080fd5b60005b858110156113405781611326888261141b565b845260208401935060208301925050600181019050611313565b5050509392505050565b600061135d61135884611c16565b611b99565b90508281526020810184848401111561137557600080fd5b611380848285611df1565b509392505050565b600081359050611397816120bc565b92915050565b600082601f8301126113ae57600080fd5b81356113be848260208601611281565b91505092915050565b600082601f8301126113d857600080fd5b81356113e88482602086016112de565b91505092915050565b600082601f83011261140257600080fd5b813561141284826020860161134a565b91505092915050565b60008135905061142a816120d3565b92915050565b6000806040838503121561144357600080fd5b600061145185828601611388565b92505060206114628582860161141b565b9150509250929050565b6000806000806080858703121561148257600080fd5b600085013567ffffffffffffffff81111561149c57600080fd5b6114a8878288016113f1565b945050602085013567ffffffffffffffff8111156114c557600080fd5b6114d1878288016113f1565b935050604085013567ffffffffffffffff8111156114ee57600080fd5b6114fa878288016113f1565b925050606085013567ffffffffffffffff81111561151757600080fd5b6115238782880161139d565b91505092959194509250565b60006020828403121561154157600080fd5b600061154f8482850161141b565b91505092915050565b60008060006060848603121561156d57600080fd5b600061157b8682870161141b565b935050602084013567ffffffffffffffff81111561159857600080fd5b6115a4868287016113f1565b925050604084013567ffffffffffffffff8111156115c157600080fd5b6115cd868287016113c7565b9150509250925092565b6000806000606084860312156115ec57600080fd5b60006115fa8682870161141b565b935050602084013567ffffffffffffffff81111561161757600080fd5b611623868287016113f1565b925050604084013567ffffffffffffffff81111561164057600080fd5b61164c868287016113f1565b9150509250925092565b6000611662838361191d565b905092915050565b6000611676838361195a565b905092915050565b600061168a83836119b1565b60208301905092915050565b61169f81611da9565b82525050565b60006116b082611c77565b6116ba8185611cca565b9350836020820285016116cc85611c47565b8060005b8581101561170857848403895281516116e98582611656565b94506116f483611ca3565b925060208a019950506001810190506116d0565b50829750879550505050505092915050565b600061172582611c82565b61172f8185611cdb565b93508360208202850161174185611c57565b8060005b8581101561177d578484038952815161175e858261166a565b945061176983611cb0565b925060208a01995050600181019050611745565b50829750879550505050505092915050565b600061179a82611c8d565b6117a48185611cec565b93506117af83611c67565b8060005b838110156117e05781516117c7888261167e565b97506117d283611cbd565b9250506001810190506117b3565b5085935050505092915050565b6117f681611dbb565b82525050565b600061180782611c98565b6118118185611cfd565b9350611821818560208601611e00565b61182a81611f6c565b840191505092915050565b600061184082611c98565b61184a8185611d0e565b935061185a818560208601611e00565b61186381611f6c565b840191505092915050565b600061187b600b83611d0e565b915061188682611f7d565b602082019050919050565b600061189e603783611d0e565b91506118a982611fa6565b604082019050919050565b60006118c1602c83611d0e565b91506118cc82611ff5565b604082019050919050565b60006118e4602883611d0e565b91506118ef82612044565b604082019050919050565b6000611907601f83611d0e565b915061191282612093565b602082019050919050565b600060408301600083015161193560008601826119b1565b506020830151848203602086015261194d82826117fc565b9150508091505092915050565b600060608301600083015161197260008601826119b1565b506020830151848203602086015261198a82826117fc565b915050604083015184820360408601526119a482826117fc565b9150508091505092915050565b6119ba81611de7565b82525050565b6119c981611de7565b82525050565b600060208201905081810360008301526119e981846116a5565b905092915050565b60006020820190508181036000830152611a0b818461171a565b905092915050565b60006020820190508181036000830152611a2d818461178f565b905092915050565b60006020820190508181036000830152611a4e8161186e565b9050919050565b60006020820190508181036000830152611a6e81611891565b9050919050565b60006020820190508181036000830152611a8e816118b4565b9050919050565b60006020820190508181036000830152611aae816118d7565b9050919050565b60006020820190508181036000830152611ace816118fa565b9050919050565b6000602082019050611aea60008301846119c0565b92915050565b600061012082019050611b06600083018c6119c0565b8181036020830152611b18818b611835565b90508181036040830152611b2c818a611835565b9050611b3b6060830189611696565b8181036080830152611b4d8188611835565b905081810360a0830152611b618187611835565b9050611b7060c08301866119c0565b611b7d60e08301856119c0565b611b8b6101008301846117ed565b9a9950505050505050505050565b6000611ba3611bb4565b9050611baf8282611e65565b919050565b6000604051905090565b600067ffffffffffffffff821115611bd957611bd8611f3d565b5b602082029050602081019050919050565b600067ffffffffffffffff821115611c0557611c04611f3d565b5b602082029050602081019050919050565b600067ffffffffffffffff821115611c3157611c30611f3d565b5b611c3a82611f6c565b9050602081019050919050565b6000819050602082019050919050565b6000819050602082019050919050565b6000819050602082019050919050565b600081519050919050565b600081519050919050565b600081519050919050565b600081519050919050565b6000602082019050919050565b6000602082019050919050565b6000602082019050919050565b600082825260208201905092915050565b600082825260208201905092915050565b600082825260208201905092915050565b600082825260208201905092915050565b600082825260208201905092915050565b6000611d2a82611de7565b9150611d3583611de7565b9250827fffffffffffffffffffffffffffffffffffffffffffffffffffffffffffffffff03821115611d6a57611d69611edf565b5b828201905092915050565b6000611d8082611de7565b9150611d8b83611de7565b925082821015611d9e57611d9d611edf565b5b828203905092915050565b6000611db482611dc7565b9050919050565b60008115159050919050565b600073ffffffffffffffffffffffffffffffffffffffff82169050919050565b6000819050919050565b82818337600083830152505050565b60005b83811015611e1e578082015181840152602081019050611e03565b83811115611e2d576000848401525b50505050565b60006002820490506001821680611e4b57607f821691505b60208210811415611e5f57611e5e611f0e565b5b50919050565b611e6e82611f6c565b810181811067ffffffffffffffff82111715611e8d57611e8c611f3d565b5b80604052505050565b6000611ea182611de7565b91507fffffffffffffffffffffffffffffffffffffffffffffffffffffffffffffffff821415611ed457611ed3611edf565b5b600182019050919050565b7f4e487b7100000000000000000000000000000000000000000000000000000000600052601160045260246000fd5b7f4e487b7100000000000000000000000000000000000000000000000000000000600052602260045260246000fd5b7f4e487b7100000000000000000000000000000000000000000000000000000000600052604160045260246000fd5b6000601f19601f8301169050919050565b7f566f746520697320656e64000000000000000000000000000000000000000000600082015250565b7f566f7465206f7074696f6e73206d757374206d6f7265207468616e203020616e60008201527f64206c657373206f7220657175616c207468616e203230000000000000000000602082015250565b7f596f75206d7573742075706c6f6164207469636b65747320636f756e74206f6660008201527f20616c6c206f7074696f6e730000000000000000000000000000000000000000602082015250565b7f766f74654944206d757374206c657373207468616e20636f6e7472616374566f60008201527f7465436f756e7473000000000000000000000000000000000000000000000000602082015250565b7f4f6e6c79204f7267616e697a65722063616e20656e642074686520766f746500600082015250565b6120c581611da9565b81146120d057600080fd5b50565b6120dc81611de7565b81146120e757600080fd5b5056fea2646970667358221220ada2f1dbb2817f56bc4bb4c2dad166193c3f6293db779bbf4a0eaa302fbf6cb064736f6c63430008030033",
  "immutableReferences": {},
  "source": "// SPDX-License-Identifier: GPL-3.0\npragma solidity >=0.8.3 <0.9.0;\n/// @title Voting with delegation.\nimport \"./ConvertLib.sol\";\n\ncontract ElectionV2 {\n        // constructor\n    constructor() {\n        // candidate = \"Candidate 1\";\n        // addCandidate(\"Candidate 1\",0);\n        // addCandidate(\"Candidate 2\",0);\n        // addCandidate(\"Candidate 3\",0);\n    }\n\n    struct VoteOption {\n        uint id;\n        string name;\n    }\n\n    struct VoteTicket {\n        uint id;\n        string encryptedBallot;\n        string signature;\n    }\n\n    struct Vote {\n        uint id;\n        string name;\n        string organizerName;\n        address organizerAddress;\n        string publicKey;\n        string privateKey;\n\n        uint voteOptionCount;\n        mapping(uint => VoteOption) voteOptions;\n        mapping(uint => uint) voteResults;\n\n        uint totalVoteCount;\n        mapping(uint => VoteTicket) voteTickets;\n\n        bool voteEnd;\n    }\n\n    // // Store contractVoteCounts count\n    uint public contractVoteCounts;\n\n    mapping(uint => Vote) public contractVotes;\n\n    mapping(address => uint[]) public myOrganizedVotes;  \n\n    function addVote (string memory _name, string memory _organizerName, string memory _publicKey,string[] memory _options) public{\n\n        require(_options.length > 0 && _options.length <= 20,\"Vote options must more than 0 and less or equal than 20\");\n        contractVoteCounts++;\n        Vote storage v = contractVotes[contractVoteCounts];\n        v.id = contractVoteCounts;\n        v.name = _name;\n        v.organizerAddress = msg.sender;\n        v.organizerName = _organizerName;\n        v.publicKey = _publicKey;\n        v.totalVoteCount = 0;\n        v.voteOptionCount = 0;\n        v.voteEnd = false;\n        myOrganizedVotes[msg.sender].push(v.id);\n\n        v.voteOptionCount = _options.length;\n        for(uint i = 1; i <= v.voteOptionCount; i++){\n            VoteOption storage vOption = v.voteOptions[i];\n            vOption.id = i;\n            vOption.name = _options[i-1];\n        }\n    }\n\n    function getMyOrganizedVotes() external view returns(uint[] memory) {\n        return myOrganizedVotes[msg.sender];\n    }\n\n    function getVoteOptionsByVoteID(uint voteID) public view returns(VoteOption[] memory) {\n        require(voteID > 0 && voteID <= contractVoteCounts, \"voteID must less than contractVoteCounts\");\n        Vote storage v = contractVotes[voteID];\n        VoteOption [] memory voteOptions = new VoteOption[](v.voteOptionCount);\n        for(uint i = 1; i <= v.voteOptionCount; i++){\n            voteOptions[i - 1] = v.voteOptions[i];\n        }\n        return voteOptions;\n    }\n\n    function getVoteTicketsByVoteID(uint voteID) public view returns(VoteTicket[] memory) {\n        require(voteID > 0 && voteID <= contractVoteCounts, \"voteID must less than contractVoteCounts\");\n        Vote storage v = contractVotes[voteID];\n        VoteTicket [] memory tickets = new VoteTicket[](v.totalVoteCount);\n        for(uint i = 1; i <= v.totalVoteCount; i++){\n            tickets[i - 1] = v.voteTickets[i];\n        }\n        return tickets;\n    }\n\n    function getVoteResultsByVoteID(uint voteID) public view returns(uint[] memory) {\n        require(voteID > 0 && voteID <= contractVoteCounts, \"voteID must less than contractVoteCounts\");\n        Vote storage v = contractVotes[voteID];\n        uint [] memory results = new uint[](v.voteOptionCount);\n        for(uint i = 1; i <= v.voteOptionCount; i++){\n            results[i - 1] = v.voteResults[i];\n        }\n        return results;\n    }\n\n    function caseVoteByVoteID(uint voteID, string memory _encryptedBallot, string memory _signature) public{\n        require(voteID > 0 && voteID <= contractVoteCounts, \"voteID must less than contractVoteCounts\");\n        Vote storage v = contractVotes[voteID];\n        require(v.voteEnd == false, \"Vote is end\");\n        v.totalVoteCount++;\n        VoteTicket storage vt = v.voteTickets[v.totalVoteCount];\n        vt.id = v.totalVoteCount;\n        vt.encryptedBallot = _encryptedBallot;\n        vt.signature = _signature;\n    }\n\n    function endVoteByVoteID(uint voteID, string memory _privateKey, uint[] memory voteOptionSuccessTicketCounts) public{\n        require(voteID > 0 && voteID <= contractVoteCounts, \"voteID must less than contractVoteCounts\");\n        Vote storage v = contractVotes[voteID];\n        require(v.organizerAddress == msg.sender,\"Only Organizer can end the vote\");\n        require(voteOptionSuccessTicketCounts.length == v.voteOptionCount,\"You must upload tickets count of all options\");\n        v.privateKey = _privateKey;\n        for(uint i = 0; i < v.voteOptionCount; i++){\n            v.voteResults[i + 1] = voteOptionSuccessTicketCounts[i];\n        }\n        v.voteEnd = true;\n    }\n\n}",
  "sourcePath": "/home/dlo/dlo/blockchain/dapp-vote-v2-typescript/contracts/ElectionV2.sol",
  "compiler": {
    "name": "solc",
    "version": "0.8.3+commit.8d00100c.Emscripten.clang"
  },
  "schemaVersion": "3.1.0",
  "updatedAt": "2021-04-14T05:00:04.463Z",
  "networkType": "ethereum",
  "devdoc": {
    "kind": "dev",
    "methods": {},
    "version": 1
  },
  "userdoc": {
    "kind": "user",
    "methods": {},
    "version": 1
  }
}